:1000000025C0ECC348C047C046C045C044C043C03B
:1000100042C041C040C098C33EC03DC03CC03BC090
:100020003AC039C038C037C036C035C039C433C013
:1000300032C031C000C42FC02EC067C40102040802
:1000400010204080040201089605E60611241FBE18
:10005000CFEFD2E0DEBFCDBF11E0A0E0B1E0EAEF2C
:10006000FDE002C005900D92A032B107D9F721E062
:10007000A0E2B1E001C01D92A83FB207E1F710E095
:10008000C5E2D0E003C02197FE01A1D6C432D1075A
:10009000D1F7C4D5A6C6B4CF87FF08C08F77893003
:1000A00028F08B3011F0815001C089E0E82FF0E09A
:1000B000E45CFF4FE491883038F491E0843029F417
:1000C00080B78F7380BF24C092E0853021F480B761
:1000D0008F7C80BF18C0863019F48FB58F7304C031
:1000E000833021F48FB58F7C8FBD0DC0883021F413
:1000F0008091CA008F7305C0873029F48091CA00AF
:100100008F7C8093CA00913019F0A6E3B0E002C062
:10011000A9E3B0E08C91E82381E090E019F480E05D
:1001200090E008950895CF93DF9386FF08C08F7302
:10013000893028F08B3011F0815001C089E0E82F20
:10014000F0E0E45CFF4FE491883038F491E08430D3
:1001500029F480B78F7380BF21C092E0853021F4ED
:1001600080B78F7C80BF18C0863019F48FB58F732D
:1001700004C0833021F48FB58F7C8FBD0DC08830D3
:1001800021F48091CA008F7305C0873029F48091D3
:10019000CA008F7C8093CA00913029F4CBE3D0E071
:1001A000A3E6B0E004C0C8E3D0E0A2E6B0E08E2F42
:1001B000809561110AC02FB7F8949881982398838D
:1001C0009C9189238C932FBF09C09FB7F8942881F5
:1001D000E22BE8832C9182238C939FBFDF91CF91F8
:1001E0000895CF93DF9386FF08C08F73893028F07E
:1001F0008B3011F0815001C089E0E82FF0E0E45C21
:10020000FF4F9491883038F4EBE3F0E0AAE3B0E0DC
:10021000C3E6D0E006C0E8E3F0E0A7E3B0E0C2E662
:10022000D0E0892F80952FB761110BC0F8949C9175
:1002300098239C9390819823908398818923888325
:1002400014C0623059F4F8943C9183238C938081DC
:10025000892B8083E881E92BE88307C0F8943881F3
:1002600083238883EC91E92BEC932FBFDF91CF910F
:10027000089581E0809322010895CF92DF92EF925A
:10028000FF920F931F93CF93DF936C01EB017B01E0
:10029000E40EF51E00E010E0CE15DF0561F0699177
:1002A000D601ED91FC910190F081E02DC6010995F8
:1002B000080F191FF1CFC801DF91CF911F910F9146
:1002C000FF90EF90DF90CF900895FC01A289B38951
:1002D00081E090E0058C02C0880F991F0A94E2F734
:1002E0002C9130E028233923232BD1F30688F7897A
:1002F000E02D608381E090E00895DC011C96ED9193
:10030000FC911D9782A193A191A380A30895DC0184
:100310001C96ED91FC911D9722A133A180A191A182
:100320008217930761F0DF01A20FB31F8C912F5F3B
:100330003F4F2F71332733A322A390E008958FEF0F
:100340009FEF0895DC011C96ED91FC911D9782A111
:1003500093A120A131A12817390729F0E80FF91F2F
:10036000808190E008958FEF9FEF0895DC011C9647
:10037000ED91FC911D9780A191A122A133A1821B37
:10038000930B8F7199270895DC011C96ED91FC91D8
:100390001D9726A137A12032310520F526A137A1CE
:1003A000A0E2B0E0A21BB30B26A137A1E20FF31F1E
:1003B0009A01A417B50708F49D01DB01AF01420FB4
:1003C000531FE417F50719F06D916193FACFDC0123
:1003D0001C96ED91FC911D9786A197A1280F391FBE
:1003E00037A326A30895DC011C96ED91FC911D977F
:1003F00086A197A1809768F486A197A19C012F5FA1
:100400003F4F37A326A3E80FF91F608381E090E0F8
:10041000089580E090E00895EF92FF920F931F936C
:10042000CF93DF93EC017C01E60EF71E00E010E0B5
:10043000CE15DF0539F0699189EE91E0D4DF080F20
:10044000191FF6CFC801DF91CF911F910F91FF9037
:10045000EF9008950895DC011C96ED91FC911D9795
:1004600020A131A182A193A12817390738F480A1D6
:1004700091A1E80FF91F808190E008958FEF9FEF21
:100480000895DC011C96ED91FC911D9720A131A1EE
:1004900082A193A12817390760F480A191A19C0142
:1004A0002F5F3F4F31A320A3E80FF91F808190E019
:1004B00008958FEF9FEF0895DC011C96ED91FC915C
:1004C0001D9782A193A120A131A1821B930B0895B6
:1004D000CF92DF92EF92FF920F931F93CF93DF9310
:1004E000CDB7DEB728970FB6F894DEBF0FBECDBFED
:1004F00080912301803109F054C08AE0CDDD01975D
:1005000021F480912601816003C0809126018E7FB5
:100510008093260183E0C0DD019721F480912601BC
:10052000826003C0809126018D7F8093260180E048
:10053000B3DD019721F480912601846003C080918E
:1005400026018B7F8093260180912201813021F446
:1005500080912601886003C080912601877F809367
:10056000260187E099DD019721F4809126018061C1
:1005700003C0809126018F7E8093260188E08CDD68
:10058000019721F480912601806203C080912601A9
:100590008F7D809326016091260189EE91E023DF13
:1005A0005BC0809123018D3F91F487E991E0DEDE0D
:1005B0009093210180932001809121018983809172
:1005C00020018A8362E070E0CE01019644C08091F0
:1005D00023018F3F09F042C0809121010091200149
:1005E00010E0182B09301105E0F0085011091093A4
:1005F0002101009320018E010F5F1F4F6E0189E0E2
:10060000C80ED11C780187E991E081DEF801819361
:100610008F01EC15FD05B9F768E070E0C701FCDE5D
:100620001DC001151105C1F0109221011092200189
:10063000CE0101967C016C01C6018E199F098017BD
:10064000910738F487E991E062DEF60181936F014A
:10065000F3CFB801C701E0DE1092230128960FB650
:10066000F894DEBF0FBECDBFDF91CF911F910F91E8
:10067000FF90EF90DF90CF9008950F931F93CF934B
:10068000DF93181619060CF059C0EC0189EE91E0C1
:10069000F8DE80932301803171F5C130D10509F472
:1006A0004DC089EE91E0EDDE182F80FF02C061E0C1
:1006B00001C060E08AE037DD11FF02C061E001C0E7
:1006C00060E083E030DD12FF02C061E001C060E065
:1006D00080E029DD13FF10922201C230D10571F1B3
:1006E00002E010E089EE91E0CCDE0F5F1F4F0C17A7
:1006F0001D07C1F723C08F3F91F4C130D105F1F040
:1007000001E010E089EE91E0BCDE682F87E991E01E
:10071000DCDD0F5F1F4F0C171D07A4F30FC08D3FCB
:1007200069F4C130D10551F001E010E089EE91E0AB
:10073000A8DE0F5F1F4F0C171D07C4F3DF91CF9189
:100740001F910F91089549D31F920F920FB60F92E8
:1007500011242F933F938F939F93AF93BF938091D7
:100760002C0190912D01A0912E01B0912F0130917B
:100770002B0126E0230F2D3730F029E8230F0396B5
:10078000A11DB11D03C00296A11DB11D20932B0117
:1007900080932C0190932D01A0932E01B0932F01F3
:1007A0008091270190912801A0912901B0912A01FF
:1007B0000196A11DB11D8093270190932801A0935C
:1007C0002901B0932A01BF91AF919F918F913F91E1
:1007D0002F910F900FBE0F901F9018951F920F92A0
:1007E0000FB60F9211242F933F934F935F936F9304
:1007F0007F938F939F93AF93BF93EF93FF938091DA
:10080000240190912501892B29F0E0912401F09198
:1008100025010995FF91EF91BF91AF919F918F9124
:100820007F916F915F914F913F912F910F900FBEEC
:100830000F901F9018951F920F920FB60F921124D0
:100840002F933F934F936F937F938F939F93EF9348
:10085000FF93409190002091500130915101C901C6
:1008600001968F71992760915201709153018617FB
:10087000970741F0F901E05DFE4F408390935101ED
:1008800080935001FF91EF919F918F917F916F9194
:100890004F913F912F910F900FBE0F901F90189581
:1008A0001F920F920FB60F9211242F933F934F93E5
:1008B0006F937F938F939F93EF93FF93409180006B
:1008C0002091930130919401C90101968F7199276C
:1008D00060919501709196018617970741F0F90193
:1008E000ED58FE4F40839093940180939301FF91C4
:1008F000EF919F918F917F916F914F913F912F91A8
:100900000F900FBE0F901F9018951F920F920FB669
:100910000F9211242F933F934F935F936F937F9385
:100920008F939F93AF93BF93CF93EF93FF93C09118
:10093000A3008C2F8C7081F08FEF8093DE0180916B
:10094000DF019091E0019F779093E0018093DF01B8
:100950008091A300846C20C0C6FD06C08091DF0199
:100960009091E00197FF90C0C0FD19C0C1FF7BC00E
:10097000E091E701F091E801309709F009958FEFD8
:100980008093DE018091DF019091E0019F77909349
:10099000E0018093DF0180E48093A300B5C08091E3
:1009A000DF019091E00197FF13C08091DF019091EA
:1009B000E0012091A000867099279695982F8827AE
:1009C00097958795822B9093E0018093DF011FC05C
:1009D0008091A00090E09093E0018093DF018091EE
:1009E000DE018F5F8093DE018091DF019091E00155
:1009F000897F9927803F910551F48091DF01909183
:100A0000E00190689093E0018093DF015DC0E09188
:100A1000E101F091E201309779F01092D701109244
:100A2000D6016091DE018091DF019091E00109958E
:100A3000811102C087E049C0C1FF10C01092DD01E2
:100A40001092DC01E091E501F091E601309709F0A8
:100A500009951092DB011092DA0136C01092D9018B
:100A60001092D80131C0E091E301F091E401309798
:100A700009F485CF1092D7011092D6018091D80148
:100A80009091D90109957BCFC7FF1EC0C1FF22C03D
:100A90002091DA013091DB018091DC019091DD0140
:100AA00028173907A8F48091DA019091DB019C01A5
:100AB0002F5F3F4F3093DB012093DA01FC01EA54B2
:100AC000FE4F80818093A00083E08093A4001CC02F
:100AD00082E0FBCF8091D8019091D901809790F46A
:100AE0008091D8019091D9019C012F5F3F4F3093A5
:100AF000D9012093D8012091A000FC01EA54FE4FB7
:100B00002083E2CF86E0E1CFFF91EF91CF91BF91BB
:100B1000AF919F918F917F916F915F914F913F9195
:100B20002F910F900FBE0F901F901895CF93DF93CA
:100B3000E7E9F1E01382128288EE93E0A0E0B0E0F2
:100B400084839583A683B783C4E0D1E0D183C08337
:100B500023E731E03587248722E830E0378726878E
:100B600021E830E0318B208B26E830E0338B228B7C
:100B700025E830E0358B248B24E830E0318F208F5E
:100B800020E830E0378B268B64E0628F53E0538F90
:100B900047E0448F35E0358F21E0268FE4E5F1E032
:100BA0001382128284839583A683B783D183C08303
:100BB000C0E3D1E0D587C487C2E9D0E0D787C68734
:100BC000C1E9D0E0D18BC08BC6E9D0E0D38BC28B1A
:100BD000C5E9D0E0D58BC48BC4E9D0E0D18FC08FFC
:100BE000C0E9D0E0D78BC68B628F538F448F358F8F
:100BF000268FE9EEF1E01382128284839583A68327
:100C0000B78384E191E09183808386EB91E09587BF
:100C100084871092F701DF91CF910895789480B77F
:100C2000836080BF83B7877F83BF83B7887F8360FC
:100C300083BF89B7816089BF8091C900887F809315
:100C4000C9008091CA008C7F81608093CA00809126
:100C5000C900877E8093C9008091C900887F836026
:100C60008093C9008EB5887F8EBD8FB58C7F8160E3
:100C70008FBD8EB5877E8EBD8EB5887F83608EBD1D
:100C800080E18093670084EA809368008CEF809312
:100C9000660085B1887F866085B92F9A61E080E023
:100CA000A0DA60E080E03FDA61E083E09ADA60E0B9
:100CB00083E039DA61E08AE094DA61E08AE033DAED
:100CC000C1E0C093260160E088E08BDA60E087E055
:100CD00088DA60E089E085DA61E081E082DA60E06C
:100CE00082E07FDA8FB7F89429E331E03093250171
:100CF000209324018FBF85B7836085BF8BB7806445
:100D00008BBFE091A901F091AA0181E090E09C01E4
:100D10000090B50102C0220F331F0A94E2F720832E
:100D2000E091A501F091A6011082E091A701F09158
:100D3000A80123E32083E091AF01F091B00126E008
:100D40002083E091AB01F091AC0140819C010090C7
:100D5000B10102C0220F331F0A94E2F7242B208333
:100D6000E091AB01F091AC0140819C010090B20197
:100D700002C0220F331F0A94E2F7242B2083E09154
:100D8000AB01F091AC0120810090B30102C0880F4B
:100D9000991F0A94E2F7822B8083E091F501F0918C
:100DA000F60186EC8093A2001092A1008FEF80A73D
:100DB0008CEB8093A500C093F7018DE393E096A799
:100DC00085A788E692E090AB87A7FFCF0895EE0F46
:100DD000FF1F0590F491E02D099481E090E0F894D4
:100DE00000C010E0C5E2D0E003C0FE01F0DF2196B4
:0A0DF000C632D107D1F7F894FFCF07
:100DFA000000000065013D01B6018701A2017D01E5
:100E0A0000000000F301C4015C0241022B022A0225
:00000001FF
